:03000000020C0FE0
:0C0C0F00787FE4F6D8FD758116020AD04B
:100A0C0052464944204241534544204341520050F0
:100A1C0041524B494E472053595354454D0053575F
:100A2C0049504520594F5552204341524400484F9C
:100A3C005553494E47204D454D42455200474F4C6A
:100A4C00414D2D20464C41542031303100444F4F04
:100A5C0052204F50454E494E4700414C4C4F572069
:100A6C00494E5349444500444F4F5220434C4F5339
:100A7C00494E4700415A495A2D20464C4154203189
:100A8C003035005441534E494D554C2D20464C4168
:100A9C00542034303500415249462D20534C4F548C
:100AAC0020313033004F5554534944452050455262
:100ABC00534F4E004E4F20534C4F5420464F522014
:040ACC00594F550029
:100AD000C2A1C2A0120C1B120BCB7BFF7A0A790CAD
:100AE000120BA87FC0120BF37BFF7A0A791B120B43
:100AF000A8120B757F01120BF37F01120BF37BFF22
:100B00007A0A792A120BA8E4F508C3E508940A7456
:100B100080948050183098FD74092508F8A699E44F
:100B2000F599C2983099FDC299050880DD12080038
:020B300080C77C
:10080000E5096431704CE50A64377046E50B6431E4
:100810007040E50C6432703AE50D64337034E50ED7
:100820006434702EE50F64357028E510643670224C
:10083000E5116434701CE512643270167F01120BEE
:10084000F3120BA27FC0120BF37BFF7A0A794902E5
:1008500009A2E5096431704CE50A64377046E50B7E
:1008600064317040E50C6431703AE50D64307034E9
:10087000E50E6438702EE50F64307028E5106430A2
:100880007022E5116434701CE512643270167F0129
:10089000120BF3120BA27FC0120BF37BFF7A0A79C3
:1008A000800209A2E50964316003020947E50A6490
:1008B000386003020947E50B64316003020947E52C
:1008C0000C64336003020947E50D64317079E50E6D
:1008D00064397073E50F6438706DE51064367067C5
:1008E000E51164347061E5126432705B7F01120BB4
:1008F000F3120BA27FC0120BF37BFF7A0A798F12DF
:100900000BA8120B757F01120BF3D2A0C2A17BFFC3
:100910007A0A7959120BA87FC0120BF37BFF7A0A6F
:100920007966120BA8120B75C2A0C2A1120BE47F4C
:1009300001120BF3C2A0D2A17BFF7A0A7973120BCA
:10094000A8120B750209DBE509643160030209ECAA
:10095000E50A643760030209ECE50B6431600302C9
:1009600009ECE50C643160030209ECE50D643170BB
:100970007BE50E64357075E50F6433706FE51064C8
:10098000307069E51164347063E5126432705D7F24
:1009900001120BF3120BA27FC0120BF37BFF7A0A3A
:1009A00079A2120BA8120B757F01120BF3D2A0C211
:1009B000A17BFF7A0A7959120BA87FC0120BF37B37
:1009C000FF7A0A7966120BA8120B75C2A0C2A11297
:1009D0000BE47F01120BF3C2A0D2A17BFF7A0A794C
:1009E00073120BA8120B75C2A0C2A1227F01120BB9
:1009F000F37BFF7A0A79B1120BA87FC0120BF37B4D
:0C0A0000FF7A0A79C0120BA8120B7522B5
:100BCB007F38120BF37F01120BF37F10120BF37FA5
:090BDB000C120BF37F80020BF3F6
:0E0BF3008F90C2A5C2A6D2A7120BE4C2A72201
:0E0C01008F90D2A5C2A6D2A7120BE4C2A722E2
:0E0BE400E4FFFE0FBF00010EBE17F8BF70F554
:010BF20022E0
:060BA2007BFF7A0A793A9C
:060BA8008B138A1489156D
:100BAE00E4F516AB13AA14A91585168275830012E7
:0C0BBE000B32FF6007120C01051680E7E7
:010BCA002208
:0C0C1B00759850758920758DFDD28E22D1
:100B7500E4F513F514900000AF82AE83E4FCFD7B31
:100B8500607AEAF9F8D3120B5F4003A380EA0514F3
:0C0B9500E514700205136402451370D9CA
:010BA1002231
:100B3200BB010CE58229F582E5833AF583E0225078
:100B420006E92582F8E622BBFE06E92582F8E222C2
:0D0B5200E58229F582E5833AF583E49322DC
:100B5F00EB9FF5F0EA9E42F0E99D42F0EC6480C80D
:060B6F0064809845F022AD
:00000001FF
